{
  "address": "0xbaF4c3459d872c32e00F01bb126f978cBD68CedD",
  "abi": [
    {
      "inputs": [],
      "name": "InsufficientBalance",
      "type": "error"
    },
    {
      "inputs": [],
      "name": "IntervalNotExceeded",
      "type": "error"
    },
    {
      "inputs": [],
      "name": "InvalidAmount",
      "type": "error"
    },
    {
      "inputs": [],
      "name": "InvalidBeneficiary",
      "type": "error"
    },
    {
      "inputs": [],
      "name": "NotBeneficiary",
      "type": "error"
    },
    {
      "inputs": [],
      "name": "TransferFailed",
      "type": "error"
    },
    {
      "anonymous": false,
      "inputs": [
        {
          "indexed": false,
          "internalType": "address",
          "name": "user",
          "type": "address"
        },
        {
          "indexed": false,
          "internalType": "address",
          "name": "beneficiary",
          "type": "address"
        }
      ],
      "name": "BeneficiaryAdded",
      "type": "event"
    },
    {
      "anonymous": false,
      "inputs": [
        {
          "indexed": false,
          "internalType": "address",
          "name": "user",
          "type": "address"
        },
        {
          "indexed": false,
          "internalType": "address",
          "name": "beneficiary",
          "type": "address"
        }
      ],
      "name": "BeneficiaryRemoved",
      "type": "event"
    },
    {
      "anonymous": false,
      "inputs": [
        {
          "indexed": false,
          "internalType": "address",
          "name": "depositor",
          "type": "address"
        },
        {
          "indexed": false,
          "internalType": "uint256",
          "name": "amount",
          "type": "uint256"
        }
      ],
      "name": "Deposit",
      "type": "event"
    },
    {
      "anonymous": false,
      "inputs": [
        {
          "indexed": false,
          "internalType": "address",
          "name": "beneficiary",
          "type": "address"
        },
        {
          "indexed": false,
          "internalType": "uint256",
          "name": "amount",
          "type": "uint256"
        }
      ],
      "name": "Withdrawal",
      "type": "event"
    },
    {
      "stateMutability": "payable",
      "type": "fallback"
    },
    {
      "inputs": [
        {
          "internalType": "address",
          "name": "_beneficiary",
          "type": "address"
        }
      ],
      "name": "addBeneficiary",
      "outputs": [],
      "stateMutability": "nonpayable",
      "type": "function"
    },
    {
      "inputs": [
        {
          "internalType": "address",
          "name": "account",
          "type": "address"
        }
      ],
      "name": "balanceOf",
      "outputs": [
        {
          "internalType": "uint256",
          "name": "",
          "type": "uint256"
        }
      ],
      "stateMutability": "view",
      "type": "function"
    },
    {
      "inputs": [
        {
          "internalType": "address",
          "name": "",
          "type": "address"
        }
      ],
      "name": "balances",
      "outputs": [
        {
          "internalType": "uint256",
          "name": "",
          "type": "uint256"
        }
      ],
      "stateMutability": "view",
      "type": "function"
    },
    {
      "inputs": [],
      "name": "checkIn",
      "outputs": [],
      "stateMutability": "nonpayable",
      "type": "function"
    },
    {
      "inputs": [
        {
          "internalType": "address",
          "name": "account",
          "type": "address"
        }
      ],
      "name": "checkInInterval",
      "outputs": [
        {
          "internalType": "uint256",
          "name": "",
          "type": "uint256"
        }
      ],
      "stateMutability": "view",
      "type": "function"
    },
    {
      "inputs": [],
      "name": "deposit",
      "outputs": [],
      "stateMutability": "payable",
      "type": "function"
    },
    {
      "inputs": [],
      "name": "greeting",
      "outputs": [
        {
          "internalType": "string",
          "name": "",
          "type": "string"
        }
      ],
      "stateMutability": "view",
      "type": "function"
    },
    {
      "inputs": [
        {
          "internalType": "address",
          "name": "",
          "type": "address"
        },
        {
          "internalType": "address",
          "name": "",
          "type": "address"
        }
      ],
      "name": "isBeneficiary",
      "outputs": [
        {
          "internalType": "bool",
          "name": "",
          "type": "bool"
        }
      ],
      "stateMutability": "view",
      "type": "function"
    },
    {
      "inputs": [
        {
          "internalType": "address",
          "name": "account",
          "type": "address"
        }
      ],
      "name": "lastCheckIn",
      "outputs": [
        {
          "internalType": "uint256",
          "name": "",
          "type": "uint256"
        }
      ],
      "stateMutability": "view",
      "type": "function"
    },
    {
      "inputs": [
        {
          "internalType": "address",
          "name": "_beneficiary",
          "type": "address"
        }
      ],
      "name": "removeBeneficiary",
      "outputs": [],
      "stateMutability": "nonpayable",
      "type": "function"
    },
    {
      "inputs": [
        {
          "internalType": "uint256",
          "name": "_interval",
          "type": "uint256"
        }
      ],
      "name": "setCheckInInterval",
      "outputs": [],
      "stateMutability": "nonpayable",
      "type": "function"
    },
    {
      "inputs": [
        {
          "internalType": "address",
          "name": "",
          "type": "address"
        }
      ],
      "name": "userCheckIn",
      "outputs": [
        {
          "internalType": "uint256",
          "name": "",
          "type": "uint256"
        }
      ],
      "stateMutability": "view",
      "type": "function"
    },
    {
      "inputs": [
        {
          "internalType": "address",
          "name": "",
          "type": "address"
        }
      ],
      "name": "userInterval",
      "outputs": [
        {
          "internalType": "uint256",
          "name": "",
          "type": "uint256"
        }
      ],
      "stateMutability": "view",
      "type": "function"
    },
    {
      "inputs": [
        {
          "internalType": "address",
          "name": "account",
          "type": "address"
        },
        {
          "internalType": "uint256",
          "name": "amount",
          "type": "uint256"
        }
      ],
      "name": "withdraw",
      "outputs": [],
      "stateMutability": "nonpayable",
      "type": "function"
    },
    {
      "stateMutability": "payable",
      "type": "receive"
    }
  ],
  "transactionHash": "0x503453bcd869ebced357453bba147f5fd3eccb2e82a41ab5d871f0d0622c2f17",
  "args": [],
  "numDeployments": 5,
  "solcInputHash": "209f342b1a75250fed2f53fb70907045",
  "bytecode": "0x608060405234801561001057600080fd5b50610a5a806100206000396000f3fe6080604052600436106100e15760003560e01c806370a082311161007f578063edf41e2c11610059578063edf41e2c146102f1578063ef690cc01461031e578063ef6fdb1c14610374578063f3fef3a3146103aa57610120565b806370a082311461027d57806375a55cd2146102b3578063d0e30db0146102e957610120565b806327e235e3116100bb57806327e235e3146101d557806346322ade146102105780635926651d1461023d57806359633a1c1461025d57610120565b806308bf49a11461013f578063096e27d914610161578063183ff085146101b157610120565b366101205733600090815260208190526040812080543492906101059084906108f6565b90915550503360009081526001602052604090204290819055005b33600090815260208190526040812080543492906101059084906108f6565b34801561014b57600080fd5b5061015f61015a36600461090f565b6103ca565b005b34801561016d57600080fd5b5061019c61017c366004610944565b600360209081526000928352604080842090915290825290205460ff1681565b60405190151581526020015b60405180910390f35b3480156101bd57600080fd5b5061015f336000908152600160205260409020429055565b3480156101e157600080fd5b506102026101f0366004610977565b60006020819052908152604090205481565b6040519081526020016101a8565b34801561021c57600080fd5b5061020261022b366004610977565b60026020526000908152604090205481565b34801561024957600080fd5b5061015f610258366004610977565b61040b565b34801561026957600080fd5b5061015f610278366004610977565b61051a565b34801561028957600080fd5b50610202610298366004610977565b6001600160a01b031660009081526020819052604090205490565b3480156102bf57600080fd5b506102026102ce366004610977565b6001600160a01b031660009081526002602052604090205490565b61015f6105cd565b3480156102fd57600080fd5b5061020261030c366004610977565b60016020526000908152604090205481565b34801561032a57600080fd5b506103676040518060400160405280601c81526020017f4275696c64696e6720556e73746f707061626c6520417070732121210000000081525081565b6040516101a89190610999565b34801561038057600080fd5b5061020261038f366004610977565b6001600160a01b031660009081526001602052604090205490565b3480156103b657600080fd5b5061015f6103c53660046109e7565b61065f565b806000036103eb5760405163162908e360e11b815260040160405180910390fd5b336000908152600260209081526040808320939093556001905220429055565b6001600160a01b03811661043257604051631559b7d760e21b815260040160405180910390fd5b336001600160a01b0382160361045b57604051631559b7d760e21b815260040160405180910390fd5b3360009081526003602090815260408083206001600160a01b038516845290915290205460ff16156104a057604051631559b7d760e21b815260040160405180910390fd5b3360008181526003602090815260408083206001600160a01b038616808552908352818420805460ff191660019081179091558585528352928190204290558051938452908301919091527fbb39c36a7502b7256e1a687254146a9a2ea7b146c77cb9e40eb0e2b8793781e191015b60405180910390a150565b3360009081526003602090815260408083206001600160a01b038516845290915290205460ff1661055e5760405163644d871f60e01b815260040160405180910390fd5b3360008181526003602090815260408083206001600160a01b038616808552908352818420805460ff1916905584845260018352928190204290558051938452908301919091527f1a6590bd0cabbfcc7c86bef99e1034054e179905cfcc294598fcd426c0922442910161050f565b346000036105ee5760405163162908e360e11b815260040160405180910390fd5b336000908152602081905260408120805434929061060d9084906108f6565b909155505033600081815260016020908152604091829020429055815192835234908301527fe1fffcc4923d04b559f4d29a8bfc6cda04eb5b0d3c460751c2402c5c5cc9109c910160405180910390a1565b806000036106805760405163162908e360e11b815260040160405180910390fd5b6001600160a01b0382166000908152602081905260409020548111156106b957604051631e9acf1760e31b815260040160405180910390fd5b6001600160a01b038216330361077b576001600160a01b038216600090815260208190526040812080548392906106f1908490610a11565b90915550506001600160a01b03821660009081526001602052604080822042905551339083908381818185875af1925050503d806000811461074f576040519150601f19603f3d011682016040523d82523d6000602084013e610754565b606091505b5050905080610776576040516312171d8360e31b815260040160405180910390fd5b505050565b6001600160a01b038216600090815260036020908152604080832033845290915290205460ff166107bf5760405163644d871f60e01b815260040160405180910390fd5b6001600160a01b0382166000908152600260209081526040808320546001909252909120546107ee9042610a11565b1161080c5760405163aaf5c16960e01b815260040160405180910390fd5b6001600160a01b03821660009081526020819052604081208054839290610834908490610a11565b9091555050604051600090339083908381818185875af1925050503d806000811461087b576040519150601f19603f3d011682016040523d82523d6000602084013e610880565b606091505b50509050806108a2576040516312171d8360e31b815260040160405180910390fd5b60408051338152602081018490527f7fcf532c15f0a6db0bd6d0e038bea71d30d808c7d98cb3bf7268a95bf5081b65910160405180910390a1505050565b634e487b7160e01b600052601160045260246000fd5b80820180821115610909576109096108e0565b92915050565b60006020828403121561092157600080fd5b5035919050565b80356001600160a01b038116811461093f57600080fd5b919050565b6000806040838503121561095757600080fd5b61096083610928565b915061096e60208401610928565b90509250929050565b60006020828403121561098957600080fd5b61099282610928565b9392505050565b600060208083528351808285015260005b818110156109c6578581018301518582016040015282016109aa565b506000604082860101526040601f19601f8301168501019250505092915050565b600080604083850312156109fa57600080fd5b610a0383610928565b946020939093013593505050565b81810381811115610909576109096108e056fea2646970667358221220983f30f2d20d6ecccbfe348542e65bfafbad10c30235275abfde8ab55fdd42fb64736f6c63430008140033",
  "devdoc": {
    "kind": "dev",
    "methods": {},
    "version": 1
  },
  "userdoc": {
    "kind": "user",
    "methods": {},
    "version": 1
  },
  "storageLayout": {
    "storage": [
      {
        "astId": 5,
        "contract": "contracts/DeadMansSwitch.sol:DeadMansSwitch",
        "label": "balances",
        "offset": 0,
        "slot": "0",
        "type": "t_mapping(t_address,t_uint256)"
      },
      {
        "astId": 9,
        "contract": "contracts/DeadMansSwitch.sol:DeadMansSwitch",
        "label": "userCheckIn",
        "offset": 0,
        "slot": "1",
        "type": "t_mapping(t_address,t_uint256)"
      },
      {
        "astId": 13,
        "contract": "contracts/DeadMansSwitch.sol:DeadMansSwitch",
        "label": "userInterval",
        "offset": 0,
        "slot": "2",
        "type": "t_mapping(t_address,t_uint256)"
      },
      {
        "astId": 19,
        "contract": "contracts/DeadMansSwitch.sol:DeadMansSwitch",
        "label": "isBeneficiary",
        "offset": 0,
        "slot": "3",
        "type": "t_mapping(t_address,t_mapping(t_address,t_bool))"
      }
    ],
    "types": {
      "t_address": {
        "encoding": "inplace",
        "label": "address",
        "numberOfBytes": "20"
      },
      "t_bool": {
        "encoding": "inplace",
        "label": "bool",
        "numberOfBytes": "1"
      },
      "t_mapping(t_address,t_bool)": {
        "encoding": "mapping",
        "key": "t_address",
        "label": "mapping(address => bool)",
        "numberOfBytes": "32",
        "value": "t_bool"
      },
      "t_mapping(t_address,t_mapping(t_address,t_bool))": {
        "encoding": "mapping",
        "key": "t_address",
        "label": "mapping(address => mapping(address => bool))",
        "numberOfBytes": "32",
        "value": "t_mapping(t_address,t_bool)"
      },
      "t_mapping(t_address,t_uint256)": {
        "encoding": "mapping",
        "key": "t_address",
        "label": "mapping(address => uint256)",
        "numberOfBytes": "32",
        "value": "t_uint256"
      },
      "t_uint256": {
        "encoding": "inplace",
        "label": "uint256",
        "numberOfBytes": "32"
      }
    }
  }
}