{
  "address": "0x37cf81E5B5DfB75d79D8Ca93A108e4aD74E6BcAE",
  "abi": [
    {
      "inputs": [],
      "name": "InsufficientBalance",
      "type": "error"
    },
    {
      "inputs": [],
      "name": "IntervalNotExceeded",
      "type": "error"
    },
    {
      "inputs": [],
      "name": "InvalidAmount",
      "type": "error"
    },
    {
      "inputs": [],
      "name": "InvalidBeneficiary",
      "type": "error"
    },
    {
      "inputs": [],
      "name": "NotBeneficiary",
      "type": "error"
    },
    {
      "inputs": [],
      "name": "OnlyUsers",
      "type": "error"
    },
    {
      "inputs": [],
      "name": "TransferFailed",
      "type": "error"
    },
    {
      "anonymous": false,
      "inputs": [
        {
          "indexed": false,
          "internalType": "address",
          "name": "user",
          "type": "address"
        },
        {
          "indexed": false,
          "internalType": "address",
          "name": "beneficiary",
          "type": "address"
        }
      ],
      "name": "BeneficiaryAdded",
      "type": "event"
    },
    {
      "anonymous": false,
      "inputs": [
        {
          "indexed": false,
          "internalType": "address",
          "name": "user",
          "type": "address"
        },
        {
          "indexed": false,
          "internalType": "address",
          "name": "beneficiary",
          "type": "address"
        }
      ],
      "name": "BeneficiaryRemoved",
      "type": "event"
    },
    {
      "anonymous": false,
      "inputs": [
        {
          "indexed": false,
          "internalType": "address",
          "name": "depositor",
          "type": "address"
        },
        {
          "indexed": false,
          "internalType": "uint256",
          "name": "amount",
          "type": "uint256"
        }
      ],
      "name": "Deposit",
      "type": "event"
    },
    {
      "anonymous": false,
      "inputs": [
        {
          "indexed": false,
          "internalType": "address",
          "name": "beneficiary",
          "type": "address"
        },
        {
          "indexed": false,
          "internalType": "uint256",
          "name": "amount",
          "type": "uint256"
        }
      ],
      "name": "Withdrawal",
      "type": "event"
    },
    {
      "inputs": [
        {
          "internalType": "address",
          "name": "_beneficiary",
          "type": "address"
        }
      ],
      "name": "addBeneficiary",
      "outputs": [],
      "stateMutability": "nonpayable",
      "type": "function"
    },
    {
      "inputs": [
        {
          "internalType": "address",
          "name": "account",
          "type": "address"
        }
      ],
      "name": "balanceOf",
      "outputs": [
        {
          "internalType": "uint256",
          "name": "",
          "type": "uint256"
        }
      ],
      "stateMutability": "view",
      "type": "function"
    },
    {
      "inputs": [
        {
          "internalType": "address",
          "name": "",
          "type": "address"
        }
      ],
      "name": "balances",
      "outputs": [
        {
          "internalType": "uint256",
          "name": "",
          "type": "uint256"
        }
      ],
      "stateMutability": "view",
      "type": "function"
    },
    {
      "inputs": [],
      "name": "checkIn",
      "outputs": [],
      "stateMutability": "nonpayable",
      "type": "function"
    },
    {
      "inputs": [
        {
          "internalType": "address",
          "name": "account",
          "type": "address"
        }
      ],
      "name": "checkInInterval",
      "outputs": [
        {
          "internalType": "uint256",
          "name": "",
          "type": "uint256"
        }
      ],
      "stateMutability": "view",
      "type": "function"
    },
    {
      "inputs": [],
      "name": "deposit",
      "outputs": [],
      "stateMutability": "payable",
      "type": "function"
    },
    {
      "inputs": [],
      "name": "greeting",
      "outputs": [
        {
          "internalType": "string",
          "name": "",
          "type": "string"
        }
      ],
      "stateMutability": "view",
      "type": "function"
    },
    {
      "inputs": [
        {
          "internalType": "address",
          "name": "",
          "type": "address"
        },
        {
          "internalType": "address",
          "name": "",
          "type": "address"
        }
      ],
      "name": "isBeneficiary",
      "outputs": [
        {
          "internalType": "bool",
          "name": "",
          "type": "bool"
        }
      ],
      "stateMutability": "view",
      "type": "function"
    },
    {
      "inputs": [
        {
          "internalType": "address",
          "name": "account",
          "type": "address"
        }
      ],
      "name": "lastCheckIn",
      "outputs": [
        {
          "internalType": "uint256",
          "name": "",
          "type": "uint256"
        }
      ],
      "stateMutability": "view",
      "type": "function"
    },
    {
      "inputs": [
        {
          "internalType": "address",
          "name": "_beneficiary",
          "type": "address"
        }
      ],
      "name": "removeBeneficiary",
      "outputs": [],
      "stateMutability": "nonpayable",
      "type": "function"
    },
    {
      "inputs": [
        {
          "internalType": "uint256",
          "name": "_interval",
          "type": "uint256"
        }
      ],
      "name": "setCheckInInterval",
      "outputs": [],
      "stateMutability": "nonpayable",
      "type": "function"
    },
    {
      "inputs": [
        {
          "internalType": "address",
          "name": "",
          "type": "address"
        }
      ],
      "name": "userCheckIn",
      "outputs": [
        {
          "internalType": "uint256",
          "name": "",
          "type": "uint256"
        }
      ],
      "stateMutability": "view",
      "type": "function"
    },
    {
      "inputs": [
        {
          "internalType": "address",
          "name": "",
          "type": "address"
        }
      ],
      "name": "userInterval",
      "outputs": [
        {
          "internalType": "uint256",
          "name": "",
          "type": "uint256"
        }
      ],
      "stateMutability": "view",
      "type": "function"
    },
    {
      "inputs": [
        {
          "internalType": "address",
          "name": "account",
          "type": "address"
        },
        {
          "internalType": "uint256",
          "name": "amount",
          "type": "uint256"
        }
      ],
      "name": "withdraw",
      "outputs": [],
      "stateMutability": "payable",
      "type": "function"
    },
    {
      "stateMutability": "payable",
      "type": "receive"
    }
  ],
  "transactionHash": "0x9d4ded8eaa39e3b5d1f0191301ee2e1b9207f1f1e294a75401d328dbda8d4e6a",
  "args": [],
  "numDeployments": 2,
  "solcInputHash": "8ce76f0e62295dfaeea0beda78af99fe",
  "bytecode": "0x608060405234801561001057600080fd5b506109cf806100206000396000f3fe6080604052600436106100e15760003560e01c806370a082311161007f578063edf41e2c11610059578063edf41e2c146102b5578063ef690cc0146102e2578063ef6fdb1c14610338578063f3fef3a31461036e57600080fd5b806370a082311461024157806375a55cd214610277578063d0e30db0146102ad57600080fd5b806327e235e3116100bb57806327e235e31461019957806346322ade146101d45780635926651d1461020157806359633a1c1461022157600080fd5b806308bf49a114610112578063096e27d914610134578063183ff0851461018457600080fd5b3661010d57336000908152602081905260408120805434929061010590849061086b565b925050819055005b600080fd5b34801561011e57600080fd5b5061013261012d366004610884565b610381565b005b34801561014057600080fd5b5061016f61014f3660046108b9565b600360209081526000928352604080842090915290825290205460ff1681565b60405190151581526020015b60405180910390f35b34801561019057600080fd5b506101326103c0565b3480156101a557600080fd5b506101c66101b43660046108ec565b60006020819052908152604090205481565b60405190815260200161017b565b3480156101e057600080fd5b506101c66101ef3660046108ec565b60026020526000908152604090205481565b34801561020d57600080fd5b5061013261021c3660046108ec565b610401565b34801561022d57600080fd5b5061013261023c3660046108ec565b6104c3565b34801561024d57600080fd5b506101c661025c3660046108ec565b6001600160a01b031660009081526020819052604090205490565b34801561028357600080fd5b506101c66102923660046108ec565b6001600160a01b031660009081526002602052604090205490565b61013261056e565b3480156102c157600080fd5b506101c66102d03660046108ec565b60016020526000908152604090205481565b3480156102ee57600080fd5b5061032b6040518060400160405280601c81526020017f4275696c64696e6720556e73746f707061626c6520417070732121210000000081525081565b60405161017b919061090e565b34801561034457600080fd5b506101c66103533660046108ec565b6001600160a01b031660009081526001602052604090205490565b61013261037c36600461095c565b6105eb565b336000908152602081905260409020546103ae5760405163b496f6e760e01b815260040160405180910390fd5b33600090815260026020526040902055565b336000908152602081905260409020546103ed5760405163b496f6e760e01b815260040160405180910390fd5b336000908152600160205260409020429055565b3360009081526020819052604090205461042e5760405163b496f6e760e01b815260040160405180910390fd5b336001600160a01b0382160361045757604051631559b7d760e21b815260040160405180910390fd5b3360008181526003602090815260408083206001600160a01b03861680855290835292819020805460ff191660011790558051938452908301919091527fbb39c36a7502b7256e1a687254146a9a2ea7b146c77cb9e40eb0e2b8793781e191015b60405180910390a150565b3360009081526003602090815260408083206001600160a01b038516845290915290205460ff16151560011461050c5760405163644d871f60e01b815260040160405180910390fd5b3360008181526003602090815260408083206001600160a01b03861680855290835292819020805460ff191690558051938452908301919091527f1a6590bd0cabbfcc7c86bef99e1034054e179905cfcc294598fcd426c092244291016104b8565b6000341161058f5760405163162908e360e11b815260040160405180910390fd5b33600090815260208190526040812080543492906105ae90849061086b565b9091555050604080513381523460208201819052917fe1fffcc4923d04b559f4d29a8bfc6cda04eb5b0d3c460751c2402c5c5cc9109c91016104b8565b6000811161060c5760405163162908e360e11b815260040160405180910390fd5b6001600160a01b03821660009081526020819052604090205481111561064557604051631e9acf1760e31b815260040160405180910390fd5b6001600160a01b03821633036106f0576001600160a01b0382166000908152602081905260408120805483929061067d908490610986565b9091555050604051600090339083908381818185875af1925050503d80600081146106c4576040519150601f19603f3d011682016040523d82523d6000602084013e6106c9565b606091505b50509050806106eb576040516312171d8360e31b815260040160405180910390fd5b505050565b6001600160a01b038216600090815260036020908152604080832033845290915290205460ff166107345760405163644d871f60e01b815260040160405180910390fd5b6001600160a01b0382166000908152600260209081526040808320546001909252909120546107639042610986565b116107815760405163aaf5c16960e01b815260040160405180910390fd5b6001600160a01b038216600090815260208190526040812080548392906107a9908490610986565b9091555050604051600090339083908381818185875af1925050503d80600081146107f0576040519150601f19603f3d011682016040523d82523d6000602084013e6107f5565b606091505b5050905080610817576040516312171d8360e31b815260040160405180910390fd5b60408051338152602081018490527f7fcf532c15f0a6db0bd6d0e038bea71d30d808c7d98cb3bf7268a95bf5081b65910160405180910390a1505050565b634e487b7160e01b600052601160045260246000fd5b8082018082111561087e5761087e610855565b92915050565b60006020828403121561089657600080fd5b5035919050565b80356001600160a01b03811681146108b457600080fd5b919050565b600080604083850312156108cc57600080fd5b6108d58361089d565b91506108e36020840161089d565b90509250929050565b6000602082840312156108fe57600080fd5b6109078261089d565b9392505050565b600060208083528351808285015260005b8181101561093b5785810183015185820160400152820161091f565b506000604082860101526040601f19601f8301168501019250505092915050565b6000806040838503121561096f57600080fd5b6109788361089d565b946020939093013593505050565b8181038181111561087e5761087e61085556fea26469706673582212200eec784ffb247ee570f07bcc6b228e46017d75f510ee4326e86bf8b551606bd764736f6c63430008140033",
  "devdoc": {
    "kind": "dev",
    "methods": {},
    "version": 1
  },
  "userdoc": {
    "kind": "user",
    "methods": {},
    "version": 1
  },
  "storageLayout": {
    "storage": [
      {
        "astId": 5,
        "contract": "contracts/DeadMansSwitch.sol:DeadMansSwitch",
        "label": "balances",
        "offset": 0,
        "slot": "0",
        "type": "t_mapping(t_address,t_uint256)"
      },
      {
        "astId": 9,
        "contract": "contracts/DeadMansSwitch.sol:DeadMansSwitch",
        "label": "userCheckIn",
        "offset": 0,
        "slot": "1",
        "type": "t_mapping(t_address,t_uint256)"
      },
      {
        "astId": 13,
        "contract": "contracts/DeadMansSwitch.sol:DeadMansSwitch",
        "label": "userInterval",
        "offset": 0,
        "slot": "2",
        "type": "t_mapping(t_address,t_uint256)"
      },
      {
        "astId": 19,
        "contract": "contracts/DeadMansSwitch.sol:DeadMansSwitch",
        "label": "isBeneficiary",
        "offset": 0,
        "slot": "3",
        "type": "t_mapping(t_address,t_mapping(t_address,t_bool))"
      }
    ],
    "types": {
      "t_address": {
        "encoding": "inplace",
        "label": "address",
        "numberOfBytes": "20"
      },
      "t_bool": {
        "encoding": "inplace",
        "label": "bool",
        "numberOfBytes": "1"
      },
      "t_mapping(t_address,t_bool)": {
        "encoding": "mapping",
        "key": "t_address",
        "label": "mapping(address => bool)",
        "numberOfBytes": "32",
        "value": "t_bool"
      },
      "t_mapping(t_address,t_mapping(t_address,t_bool))": {
        "encoding": "mapping",
        "key": "t_address",
        "label": "mapping(address => mapping(address => bool))",
        "numberOfBytes": "32",
        "value": "t_mapping(t_address,t_bool)"
      },
      "t_mapping(t_address,t_uint256)": {
        "encoding": "mapping",
        "key": "t_address",
        "label": "mapping(address => uint256)",
        "numberOfBytes": "32",
        "value": "t_uint256"
      },
      "t_uint256": {
        "encoding": "inplace",
        "label": "uint256",
        "numberOfBytes": "32"
      }
    }
  }
}