{
  "address": "0x539fe87bCDD6DD86D047210378F3b8380a0440B2",
  "abi": [
    {
      "inputs": [],
      "name": "InsufficientBalance",
      "type": "error"
    },
    {
      "inputs": [],
      "name": "IntervalNotExceeded",
      "type": "error"
    },
    {
      "inputs": [],
      "name": "InvalidAmount",
      "type": "error"
    },
    {
      "inputs": [],
      "name": "InvalidBeneficiary",
      "type": "error"
    },
    {
      "inputs": [],
      "name": "NotBeneficiary",
      "type": "error"
    },
    {
      "inputs": [],
      "name": "TransferFailed",
      "type": "error"
    },
    {
      "anonymous": false,
      "inputs": [
        {
          "indexed": false,
          "internalType": "address",
          "name": "user",
          "type": "address"
        },
        {
          "indexed": false,
          "internalType": "address",
          "name": "beneficiary",
          "type": "address"
        }
      ],
      "name": "BeneficiaryAdded",
      "type": "event"
    },
    {
      "anonymous": false,
      "inputs": [
        {
          "indexed": false,
          "internalType": "address",
          "name": "user",
          "type": "address"
        },
        {
          "indexed": false,
          "internalType": "address",
          "name": "beneficiary",
          "type": "address"
        }
      ],
      "name": "BeneficiaryRemoved",
      "type": "event"
    },
    {
      "anonymous": false,
      "inputs": [
        {
          "indexed": false,
          "internalType": "address",
          "name": "account",
          "type": "address"
        },
        {
          "indexed": false,
          "internalType": "uint256",
          "name": "timestamp",
          "type": "uint256"
        }
      ],
      "name": "CheckIn",
      "type": "event"
    },
    {
      "anonymous": false,
      "inputs": [
        {
          "indexed": false,
          "internalType": "address",
          "name": "depositor",
          "type": "address"
        },
        {
          "indexed": false,
          "internalType": "uint256",
          "name": "amount",
          "type": "uint256"
        }
      ],
      "name": "Deposit",
      "type": "event"
    },
    {
      "anonymous": false,
      "inputs": [
        {
          "indexed": false,
          "internalType": "address",
          "name": "beneficiary",
          "type": "address"
        },
        {
          "indexed": false,
          "internalType": "uint256",
          "name": "amount",
          "type": "uint256"
        }
      ],
      "name": "Withdrawal",
      "type": "event"
    },
    {
      "stateMutability": "payable",
      "type": "fallback"
    },
    {
      "inputs": [
        {
          "internalType": "address",
          "name": "beneficiary",
          "type": "address"
        }
      ],
      "name": "addBeneficiary",
      "outputs": [],
      "stateMutability": "nonpayable",
      "type": "function"
    },
    {
      "inputs": [
        {
          "internalType": "address",
          "name": "account",
          "type": "address"
        }
      ],
      "name": "balanceOf",
      "outputs": [
        {
          "internalType": "uint256",
          "name": "",
          "type": "uint256"
        }
      ],
      "stateMutability": "view",
      "type": "function"
    },
    {
      "inputs": [],
      "name": "checkIn",
      "outputs": [],
      "stateMutability": "nonpayable",
      "type": "function"
    },
    {
      "inputs": [
        {
          "internalType": "address",
          "name": "account",
          "type": "address"
        }
      ],
      "name": "checkInInterval",
      "outputs": [
        {
          "internalType": "uint256",
          "name": "",
          "type": "uint256"
        }
      ],
      "stateMutability": "view",
      "type": "function"
    },
    {
      "inputs": [],
      "name": "deposit",
      "outputs": [],
      "stateMutability": "payable",
      "type": "function"
    },
    {
      "inputs": [
        {
          "internalType": "address",
          "name": "",
          "type": "address"
        },
        {
          "internalType": "address",
          "name": "",
          "type": "address"
        }
      ],
      "name": "isBeneficiary",
      "outputs": [
        {
          "internalType": "bool",
          "name": "",
          "type": "bool"
        }
      ],
      "stateMutability": "view",
      "type": "function"
    },
    {
      "inputs": [
        {
          "internalType": "address",
          "name": "account",
          "type": "address"
        }
      ],
      "name": "lastCheckIn",
      "outputs": [
        {
          "internalType": "uint256",
          "name": "",
          "type": "uint256"
        }
      ],
      "stateMutability": "view",
      "type": "function"
    },
    {
      "inputs": [
        {
          "internalType": "address",
          "name": "beneficiary",
          "type": "address"
        }
      ],
      "name": "removeBeneficiary",
      "outputs": [],
      "stateMutability": "nonpayable",
      "type": "function"
    },
    {
      "inputs": [
        {
          "internalType": "uint256",
          "name": "interval",
          "type": "uint256"
        }
      ],
      "name": "setCheckInInterval",
      "outputs": [],
      "stateMutability": "nonpayable",
      "type": "function"
    },
    {
      "inputs": [
        {
          "internalType": "address",
          "name": "account",
          "type": "address"
        },
        {
          "internalType": "uint256",
          "name": "amount",
          "type": "uint256"
        }
      ],
      "name": "withdraw",
      "outputs": [],
      "stateMutability": "nonpayable",
      "type": "function"
    },
    {
      "stateMutability": "payable",
      "type": "receive"
    }
  ],
  "transactionHash": "0x1bf1c2d9b7b6e0e49cde90c47a360c7cbd753674517f66be4da9608abf407850",
  "args": [],
  "numDeployments": 7,
  "solcInputHash": "71a075caee304f119d4a76c04b907e17",
  "bytecode": "0x608060405234801561001057600080fd5b506109ab806100206000396000f3fe6080604052600436106100955760003560e01c806370a082311161005957806370a082311461021557806375a55cd214610262578063d0e30db0146102a5578063ef6fdb1c146102ad578063f3fef3a3146102f057610111565b806308bf49a11461014e578063096e27d914610170578063183ff085146101c05780635926651d146101d557806359633a1c146101f557610111565b366101115733600081815260208190526040902080546001600160601b038082163401166001600160601b03199091161781559042906100d790839083610310565b604080513381523460208201527fe1fffcc4923d04b559f4d29a8bfc6cda04eb5b0d3c460751c2402c5c5cc9109c910160405180910390a1005b33600081815260208190526040902080546001600160601b038082163401166001600160601b03199091161781559042906100d790839083610310565b34801561015a57600080fd5b5061016e61016936600461089a565b610379565b005b34801561017c57600080fd5b506101ab61018b3660046108cf565b600160209081526000928352604080842090915290825290205460ff1681565b60405190151581526020015b60405180910390f35b3480156101cc57600080fd5b5061016e6103d9565b3480156101e157600080fd5b5061016e6101f0366004610902565b6103fb565b34801561020157600080fd5b5061016e610210366004610902565b610503565b34801561022157600080fd5b50610254610230366004610902565b6001600160a01b03166000908152602081905260409020546001600160601b031690565b6040519081526020016101b7565b34801561026e57600080fd5b5061025461027d366004610902565b6001600160a01b0316600090815260208190526040902054600160801b900463ffffffff1690565b61016e6105a9565b3480156102b957600080fd5b506102546102c8366004610902565b6001600160a01b0316600090815260208190526040902054600160601b900463ffffffff1690565b3480156102fc57600080fd5b5061016e61030b366004610924565b610643565b825463ffffffff60601b1916600160601b63ffffffff8316908102919091178455604080516001600160a01b038516815260208101929092527fa864a8b988e604bb05d6ce75d53efabb5620c45b15380b7bd0c51dcfa71dda03910160405180910390a1505050565b8060000361039a5760405163162908e360e11b815260040160405180910390fd5b336000818152602081905260409020805463ffffffff60801b1916600160801b63ffffffff8516021781559042906103d490839083610310565b505050565b3360008181526020819052604090209042906103f790839083610310565b5050565b6001600160a01b038116158061041957506001600160a01b03811633145b1561043757604051631559b7d760e21b815260040160405180910390fd5b3360009081526001602090815260408083206001600160a01b038516845290915290205460ff161561047c57604051631559b7d760e21b815260040160405180910390fd5b3360008181526001602081815260408084206001600160a01b03871680865290835293819020805460ff191690931790925581519384528301919091527fbb39c36a7502b7256e1a687254146a9a2ea7b146c77cb9e40eb0e2b8793781e191015b60405180910390a13360008181526020819052604090209042906103d490839083610310565b3360009081526001602090815260408083206001600160a01b038516845290915290205460ff166105475760405163644d871f60e01b815260040160405180910390fd5b3360008181526001602090815260408083206001600160a01b03861680855290835292819020805460ff191690558051938452908301919091527f1a6590bd0cabbfcc7c86bef99e1034054e179905cfcc294598fcd426c092244291016104dd565b346000036105ca5760405163162908e360e11b815260040160405180910390fd5b33600081815260208190526040902080546001600160601b038082163401166001600160601b031990911617815590429061060790839083610310565b604080513381523460208201527fe1fffcc4923d04b559f4d29a8bfc6cda04eb5b0d3c460751c2402c5c5cc9109c910160405180910390a15050565b806000036106645760405163162908e360e11b815260040160405180910390fd5b6001600160a01b038216600090815260208190526040902080546001600160601b0316828110156106a857604051631e9acf1760e31b815260040160405180910390fd5b6001600160a01b038416330361074f5781546001600160601b0319168382036001600160601b0316178255426106df838683610310565b604051600090339086908381818185875af1925050503d8060008114610721576040519150601f19603f3d011682016040523d82523d6000602084013e610726565b606091505b5050905080610748576040516312171d8360e31b815260040160405180910390fd5b5050610894565b6001600160a01b038416600090815260016020908152604080832033845290915290205460ff166107935760405163644d871f60e01b815260040160405180910390fd5b815463ffffffff600160801b82048116916107b791600160601b909104164261094e565b116107d55760405163aaf5c16960e01b815260040160405180910390fd5b81546001600160601b0319168382036001600160601b0316178255604051600090339085908381818185875af1925050503d8060008114610832576040519150601f19603f3d011682016040523d82523d6000602084013e610837565b606091505b5050905080610859576040516312171d8360e31b815260040160405180910390fd5b60408051338152602081018690527f7fcf532c15f0a6db0bd6d0e038bea71d30d808c7d98cb3bf7268a95bf5081b65910160405180910390a1505b50505050565b6000602082840312156108ac57600080fd5b5035919050565b80356001600160a01b03811681146108ca57600080fd5b919050565b600080604083850312156108e257600080fd5b6108eb836108b3565b91506108f9602084016108b3565b90509250929050565b60006020828403121561091457600080fd5b61091d826108b3565b9392505050565b6000806040838503121561093757600080fd5b610940836108b3565b946020939093013593505050565b8181038181111561096f57634e487b7160e01b600052601160045260246000fd5b9291505056fea26469706673582212206428e2eabc44d35ac994db590de6b9540e8a6c5181448ad4607abe17647ca16564736f6c63430008140033",
  "devdoc": {
    "kind": "dev",
    "methods": {},
    "version": 1
  },
  "userdoc": {
    "kind": "user",
    "methods": {},
    "version": 1
  },
  "storageLayout": {
    "storage": [
      {
        "astId": 13,
        "contract": "contracts/DeadMansSwitch.sol:DeadMansSwitch",
        "label": "users",
        "offset": 0,
        "slot": "0",
        "type": "t_mapping(t_address,t_struct(User)8_storage)"
      },
      {
        "astId": 19,
        "contract": "contracts/DeadMansSwitch.sol:DeadMansSwitch",
        "label": "isBeneficiary",
        "offset": 0,
        "slot": "1",
        "type": "t_mapping(t_address,t_mapping(t_address,t_bool))"
      }
    ],
    "types": {
      "t_address": {
        "encoding": "inplace",
        "label": "address",
        "numberOfBytes": "20"
      },
      "t_bool": {
        "encoding": "inplace",
        "label": "bool",
        "numberOfBytes": "1"
      },
      "t_mapping(t_address,t_bool)": {
        "encoding": "mapping",
        "key": "t_address",
        "label": "mapping(address => bool)",
        "numberOfBytes": "32",
        "value": "t_bool"
      },
      "t_mapping(t_address,t_mapping(t_address,t_bool))": {
        "encoding": "mapping",
        "key": "t_address",
        "label": "mapping(address => mapping(address => bool))",
        "numberOfBytes": "32",
        "value": "t_mapping(t_address,t_bool)"
      },
      "t_mapping(t_address,t_struct(User)8_storage)": {
        "encoding": "mapping",
        "key": "t_address",
        "label": "mapping(address => struct DeadMansSwitch.User)",
        "numberOfBytes": "32",
        "value": "t_struct(User)8_storage"
      },
      "t_struct(User)8_storage": {
        "encoding": "inplace",
        "label": "struct DeadMansSwitch.User",
        "members": [
          {
            "astId": 3,
            "contract": "contracts/DeadMansSwitch.sol:DeadMansSwitch",
            "label": "balance",
            "offset": 0,
            "slot": "0",
            "type": "t_uint96"
          },
          {
            "astId": 5,
            "contract": "contracts/DeadMansSwitch.sol:DeadMansSwitch",
            "label": "lastCheckIn",
            "offset": 12,
            "slot": "0",
            "type": "t_uint32"
          },
          {
            "astId": 7,
            "contract": "contracts/DeadMansSwitch.sol:DeadMansSwitch",
            "label": "interval",
            "offset": 16,
            "slot": "0",
            "type": "t_uint32"
          }
        ],
        "numberOfBytes": "32"
      },
      "t_uint32": {
        "encoding": "inplace",
        "label": "uint32",
        "numberOfBytes": "4"
      },
      "t_uint96": {
        "encoding": "inplace",
        "label": "uint96",
        "numberOfBytes": "12"
      }
    }
  }
}